{
  "_format": "hh-sol-artifact-1",
  "contractName": "SuperProphets",
  "sourceName": "contracts/SuperProphets.sol",
  "abi": [
    {
      "inputs": [],
      "stateMutability": "nonpayable",
      "type": "constructor"
    },
    {
      "anonymous": false,
      "inputs": [
        {
          "indexed": false,
          "internalType": "bool",
          "name": "up",
          "type": "bool"
        }
      ],
      "name": "StepEvent",
      "type": "event"
    },
    {
      "inputs": [],
      "name": "checkPred",
      "outputs": [],
      "stateMutability": "nonpayable",
      "type": "function"
    },
    {
      "inputs": [
        {
          "internalType": "string",
          "name": "_name",
          "type": "string"
        },
        {
          "internalType": "string",
          "name": "_bio",
          "type": "string"
        }
      ],
      "name": "createProfile",
      "outputs": [],
      "stateMutability": "nonpayable",
      "type": "function"
    },
    {
      "inputs": [],
      "name": "getLatestData",
      "outputs": [
        {
          "internalType": "int256",
          "name": "",
          "type": "int256"
        }
      ],
      "stateMutability": "view",
      "type": "function"
    },
    {
      "inputs": [
        {
          "internalType": "uint256",
          "name": "_stepAfter",
          "type": "uint256"
        },
        {
          "internalType": "bool",
          "name": "_up",
          "type": "bool"
        }
      ],
      "name": "makePred",
      "outputs": [],
      "stateMutability": "nonpayable",
      "type": "function"
    },
    {
      "inputs": [],
      "name": "makeRec",
      "outputs": [],
      "stateMutability": "nonpayable",
      "type": "function"
    },
    {
      "inputs": [],
      "name": "makeStep",
      "outputs": [],
      "stateMutability": "nonpayable",
      "type": "function"
    },
    {
      "inputs": [
        {
          "internalType": "uint256",
          "name": "",
          "type": "uint256"
        }
      ],
      "name": "preds",
      "outputs": [
        {
          "internalType": "uint256",
          "name": "stepAfter",
          "type": "uint256"
        },
        {
          "internalType": "int256",
          "name": "priceBefore",
          "type": "int256"
        },
        {
          "internalType": "int256",
          "name": "priceAfter",
          "type": "int256"
        },
        {
          "internalType": "bool",
          "name": "up",
          "type": "bool"
        },
        {
          "internalType": "uint256",
          "name": "timestamp",
          "type": "uint256"
        },
        {
          "internalType": "address",
          "name": "trader",
          "type": "address"
        },
        {
          "internalType": "bool",
          "name": "done",
          "type": "bool"
        },
        {
          "internalType": "bool",
          "name": "exact",
          "type": "bool"
        }
      ],
      "stateMutability": "view",
      "type": "function"
    },
    {
      "inputs": [],
      "name": "predsNum",
      "outputs": [
        {
          "internalType": "uint256",
          "name": "",
          "type": "uint256"
        }
      ],
      "stateMutability": "view",
      "type": "function"
    },
    {
      "inputs": [
        {
          "internalType": "uint256",
          "name": "",
          "type": "uint256"
        }
      ],
      "name": "recs",
      "outputs": [
        {
          "internalType": "uint256",
          "name": "step",
          "type": "uint256"
        },
        {
          "internalType": "int256",
          "name": "price",
          "type": "int256"
        },
        {
          "internalType": "bool",
          "name": "up",
          "type": "bool"
        },
        {
          "internalType": "uint256",
          "name": "timestamp",
          "type": "uint256"
        }
      ],
      "stateMutability": "view",
      "type": "function"
    },
    {
      "inputs": [],
      "name": "recsNum",
      "outputs": [
        {
          "internalType": "uint256",
          "name": "",
          "type": "uint256"
        }
      ],
      "stateMutability": "view",
      "type": "function"
    },
    {
      "inputs": [
        {
          "internalType": "uint256",
          "name": "",
          "type": "uint256"
        }
      ],
      "name": "traders",
      "outputs": [
        {
          "internalType": "address",
          "name": "ad",
          "type": "address"
        },
        {
          "internalType": "string",
          "name": "name",
          "type": "string"
        },
        {
          "internalType": "string",
          "name": "bio",
          "type": "string"
        }
      ],
      "stateMutability": "view",
      "type": "function"
    },
    {
      "inputs": [],
      "name": "tradersNum",
      "outputs": [
        {
          "internalType": "uint256",
          "name": "",
          "type": "uint256"
        }
      ],
      "stateMutability": "view",
      "type": "function"
    }
  ],
  "bytecode": "0x608060405260006004556000600555600060065534801561001f57600080fd5b5073ee5f16f7ed4c74721fc45ddf2c7d231336a78aa16000806101000a81548173ffffffffffffffffffffffffffffffffffffffff021916908373ffffffffffffffffffffffffffffffffffffffff1602179055506119db806100836000396000f3fe608060405234801561001057600080fd5b50600436106100b45760003560e01c8063569f4b9911610071578063569f4b9914610184578063800c10e41461018e57806384acbb89146101ac578063ab757d61146101df578063ba1feb8a146101fd578063c53d987f14610219576100b4565b80630423d207146100b9578063051fb977146100f05780630a995192146100fa578063135e563d146101165780632a086308146101485780632a20bce714610166575b600080fd5b6100d360048036038101906100ce9190610f4b565b610223565b6040516100e7989796959493929190610ffc565b60405180910390f35b6100f86102c2565b005b610114600480360381019061010f91906110a6565b6103dc565b005b610130600480360381019061012b9190610f4b565b6106ce565b60405161013f93929190611176565b60405180910390f35b610150610838565b60405161015d91906111bb565b60405180910390f35b61016e61083e565b60405161017b91906111bb565b60405180910390f35b61018c610844565b005b610196610b9e565b6040516101a391906111bb565b60405180910390f35b6101c660048036038101906101c19190610f4b565b610ba4565b6040516101d694939291906111d6565b60405180910390f35b6101e7610bf1565b6040516101f4919061121b565b60405180910390f35b6102176004803603810190610212919061136b565b610c90565b005b610221610eef565b005b6002818154811061023357600080fd5b90600052602060002090600602016000915090508060000154908060010154908060020154908060030160009054906101000a900460ff16908060040154908060050160009054906101000a900473ffffffffffffffffffffffffffffffffffffffff16908060050160149054906101000a900460ff16908060050160159054906101000a900460ff16905088565b60006102cc610bf1565b9050600080600180549050146103145760018080805490506102ee9190611412565b815481106102ff576102fe611446565b5b90600052602060002090600402016001015490505b600081831315610327576001905061032c565b600090505b6001604051806080016040528060018054905081526020018581526020018315158152602001428152509080600181540180825580915050600190039060005260206000209060040201600090919091909150600082015181600001556020820151816001015560408201518160020160006101000a81548160ff021916908315150217905550606082015181600301555050600460008154809291906103d290611475565b9190505550505050565b60006001905060005b6005548110156104bc573373ffffffffffffffffffffffffffffffffffffffff166002828154811061041a57610419611446565b5b906000526020600020906006020160050160009054906101000a900473ffffffffffffffffffffffffffffffffffffffff1673ffffffffffffffffffffffffffffffffffffffff1614801561049f57506002818154811061047e5761047d611446565b5b906000526020600020906006020160050160149054906101000a900460ff16155b156104a957600091505b80806104b490611475565b9150506103e5565b50806104fd576040517f08c379a00000000000000000000000000000000000000000000000000000000081526004016104f490611509565b60405180910390fd5b6001808054905061050e9190611529565b831161054f576040517f08c379a0000000000000000000000000000000000000000000000000000000008152600401610546906115a9565b60405180910390fd5b6000610559610bf1565b905060026040518061010001604052808681526020018381526020016000815260200185151581526020014281526020013373ffffffffffffffffffffffffffffffffffffffff16815260200160001515815260200160001515815250908060018154018082558091505060019003906000526020600020906006020160009091909190915060008201518160000155602082015181600101556040820151816002015560608201518160030160006101000a81548160ff0219169083151502179055506080820151816004015560a08201518160050160006101000a81548173ffffffffffffffffffffffffffffffffffffffff021916908373ffffffffffffffffffffffffffffffffffffffff16021790555060c08201518160050160146101000a81548160ff02191690831515021790555060e08201518160050160156101000a81548160ff0219169083151502179055505050600560008154809291906106c390611475565b919050555050505050565b600381815481106106de57600080fd5b90600052602060002090600302016000915090508060000160009054906101000a900473ffffffffffffffffffffffffffffffffffffffff1690806001018054610727906115f8565b80601f0160208091040260200160405190810160405280929190818152602001828054610753906115f8565b80156107a05780601f10610775576101008083540402835291602001916107a0565b820191906000526020600020905b81548152906001019060200180831161078357829003601f168201915b5050505050908060020180546107b5906115f8565b80601f01602080910402602001604051908101604052809291908181526020018280546107e1906115f8565b801561082e5780601f106108035761010080835404028352916020019161082e565b820191906000526020600020905b81548152906001019060200180831161081157829003601f168201915b5050505050905083565b60045481565b60055481565b600061084e610bf1565b9050600060018080805490506108649190611412565b8154811061087557610874611446565b5b906000526020600020906004020160405180608001604052908160008201548152602001600182015481526020016002820160009054906101000a900460ff16151515158152602001600382015481525050905060005b600280549050811015610b99576000600282815481106108ef576108ee611446565b5b9060005260206000209060060201604051806101000160405290816000820154815260200160018201548152602001600282015481526020016003820160009054906101000a900460ff16151515158152602001600482015481526020016005820160009054906101000a900473ffffffffffffffffffffffffffffffffffffffff1673ffffffffffffffffffffffffffffffffffffffff1673ffffffffffffffffffffffffffffffffffffffff1681526020016005820160149054906101000a900460ff161515151581526020016005820160159054906101000a900460ff161515151581525050905082600001518160000151146109ef5750610b86565b83816040018181525050806060015115610a3c57806020015183602001511315610a295760018160e0019015159081151581525050610a3b565b60008160e00190151590811515815250505b5b8060600151610a7e57806020015183602001511215610a6b5760018160e0019015159081151581525050610a7d565b60008160e00190151590811515815250505b5b60018160c00190151590811515815250508060028381548110610aa457610aa3611446565b5b906000526020600020906006020160008201518160000155602082015181600101556040820151816002015560608201518160030160006101000a81548160ff0219169083151502179055506080820151816004015560a08201518160050160006101000a81548173ffffffffffffffffffffffffffffffffffffffff021916908373ffffffffffffffffffffffffffffffffffffffff16021790555060c08201518160050160146101000a81548160ff02191690831515021790555060e08201518160050160156101000a81548160ff021916908315150217905550905050505b8080610b9190611475565b9150506108cc565b505050565b60065481565b60018181548110610bb457600080fd5b90600052602060002090600402016000915090508060000154908060010154908060020160009054906101000a900460ff16908060030154905084565b60008060008054906101000a900473ffffffffffffffffffffffffffffffffffffffff1673ffffffffffffffffffffffffffffffffffffffff1663feaf968c6040518163ffffffff1660e01b815260040160a060405180830381865afa158015610c5f573d6000803e3d6000fd5b505050506040513d601f19601f82011682018060405250810190610c8391906116ac565b5050509150508091505090565b6000805b600380549050811015610dfa573373ffffffffffffffffffffffffffffffffffffffff1660038281548110610ccc57610ccb611446565b5b906000526020600020906003020160000160009054906101000a900473ffffffffffffffffffffffffffffffffffffffff1673ffffffffffffffffffffffffffffffffffffffff1603610de7576001915060405180606001604052803373ffffffffffffffffffffffffffffffffffffffff1681526020018581526020018481525060038281548110610d6257610d61611446565b5b906000526020600020906003020160008201518160000160006101000a81548173ffffffffffffffffffffffffffffffffffffffff021916908373ffffffffffffffffffffffffffffffffffffffff1602179055506020820151816001019081610dcc91906118d3565b506040820151816002019081610de291906118d3565b509050505b8080610df290611475565b915050610c94565b5080610eea57600360405180606001604052803373ffffffffffffffffffffffffffffffffffffffff16815260200185815260200184815250908060018154018082558091505060019003906000526020600020906003020160009091909190915060008201518160000160006101000a81548173ffffffffffffffffffffffffffffffffffffffff021916908373ffffffffffffffffffffffffffffffffffffffff1602179055506020820151816001019081610eb891906118d3565b506040820151816002019081610ece91906118d3565b50505060066000815480929190610ee490611475565b91905055505b505050565b610ef76102c2565b610eff610844565b565b6000604051905090565b600080fd5b600080fd5b6000819050919050565b610f2881610f15565b8114610f3357600080fd5b50565b600081359050610f4581610f1f565b92915050565b600060208284031215610f6157610f60610f0b565b5b6000610f6f84828501610f36565b91505092915050565b610f8181610f15565b82525050565b6000819050919050565b610f9a81610f87565b82525050565b60008115159050919050565b610fb581610fa0565b82525050565b600073ffffffffffffffffffffffffffffffffffffffff82169050919050565b6000610fe682610fbb565b9050919050565b610ff681610fdb565b82525050565b600061010082019050611012600083018b610f78565b61101f602083018a610f91565b61102c6040830189610f91565b6110396060830188610fac565b6110466080830187610f78565b61105360a0830186610fed565b61106060c0830185610fac565b61106d60e0830184610fac565b9998505050505050505050565b61108381610fa0565b811461108e57600080fd5b50565b6000813590506110a08161107a565b92915050565b600080604083850312156110bd576110bc610f0b565b5b60006110cb85828601610f36565b92505060206110dc85828601611091565b9150509250929050565b600081519050919050565b600082825260208201905092915050565b60005b83811015611120578082015181840152602081019050611105565b60008484015250505050565b6000601f19601f8301169050919050565b6000611148826110e6565b61115281856110f1565b9350611162818560208601611102565b61116b8161112c565b840191505092915050565b600060608201905061118b6000830186610fed565b818103602083015261119d818561113d565b905081810360408301526111b1818461113d565b9050949350505050565b60006020820190506111d06000830184610f78565b92915050565b60006080820190506111eb6000830187610f78565b6111f86020830186610f91565b6112056040830185610fac565b6112126060830184610f78565b95945050505050565b60006020820190506112306000830184610f91565b92915050565b600080fd5b600080fd5b7f4e487b7100000000000000000000000000000000000000000000000000000000600052604160045260246000fd5b6112788261112c565b810181811067ffffffffffffffff8211171561129757611296611240565b5b80604052505050565b60006112aa610f01565b90506112b6828261126f565b919050565b600067ffffffffffffffff8211156112d6576112d5611240565b5b6112df8261112c565b9050602081019050919050565b82818337600083830152505050565b600061130e611309846112bb565b6112a0565b90508281526020810184848401111561132a5761132961123b565b5b6113358482856112ec565b509392505050565b600082601f83011261135257611351611236565b5b81356113628482602086016112fb565b91505092915050565b6000806040838503121561138257611381610f0b565b5b600083013567ffffffffffffffff8111156113a05761139f610f10565b5b6113ac8582860161133d565b925050602083013567ffffffffffffffff8111156113cd576113cc610f10565b5b6113d98582860161133d565b9150509250929050565b7f4e487b7100000000000000000000000000000000000000000000000000000000600052601160045260246000fd5b600061141d82610f15565b915061142883610f15565b92508282039050818111156114405761143f6113e3565b5b92915050565b7f4e487b7100000000000000000000000000000000000000000000000000000000600052603260045260246000fd5b600061148082610f15565b91507fffffffffffffffffffffffffffffffffffffffffffffffffffffffffffffffff82036114b2576114b16113e3565b5b600182019050919050565b7f50726564696374696f6e2070656e64696e6720666f7220746869732075736572600082015250565b60006114f36020836110f1565b91506114fe826114bd565b602082019050919050565b60006020820190508181036000830152611522816114e6565b9050919050565b600061153482610f15565b915061153f83610f15565b9250828201905080821115611557576115566113e3565b5b92915050565b7f4e656564206d6f72652073746570730000000000000000000000000000000000600082015250565b6000611593600f836110f1565b915061159e8261155d565b602082019050919050565b600060208201905081810360008301526115c281611586565b9050919050565b7f4e487b7100000000000000000000000000000000000000000000000000000000600052602260045260246000fd5b6000600282049050600182168061161057607f821691505b602082108103611623576116226115c9565b5b50919050565b600069ffffffffffffffffffff82169050919050565b61164881611629565b811461165357600080fd5b50565b6000815190506116658161163f565b92915050565b61167481610f87565b811461167f57600080fd5b50565b6000815190506116918161166b565b92915050565b6000815190506116a681610f1f565b92915050565b600080600080600060a086880312156116c8576116c7610f0b565b5b60006116d688828901611656565b95505060206116e788828901611682565b94505060406116f888828901611697565b935050606061170988828901611697565b925050608061171a88828901611656565b9150509295509295909350565b60008190508160005260206000209050919050565b60006020601f8301049050919050565b600082821b905092915050565b6000600883026117897fffffffffffffffffffffffffffffffffffffffffffffffffffffffffffffffff8261174c565b611793868361174c565b95508019841693508086168417925050509392505050565b6000819050919050565b60006117d06117cb6117c684610f15565b6117ab565b610f15565b9050919050565b6000819050919050565b6117ea836117b5565b6117fe6117f6826117d7565b848454611759565b825550505050565b600090565b611813611806565b61181e8184846117e1565b505050565b5b818110156118425761183760008261180b565b600181019050611824565b5050565b601f8211156118875761185881611727565b6118618461173c565b81016020851015611870578190505b61188461187c8561173c565b830182611823565b50505b505050565b600082821c905092915050565b60006118aa6000198460080261188c565b1980831691505092915050565b60006118c38383611899565b9150826002028217905092915050565b6118dc826110e6565b67ffffffffffffffff8111156118f5576118f4611240565b5b6118ff82546115f8565b61190a828285611846565b600060209050601f83116001811461193d576000841561192b578287015190505b61193585826118b7565b86555061199d565b601f19841661194b86611727565b60005b828110156119735784890151825560018201915060208501945060208101905061194e565b86831015611990578489015161198c601f891682611899565b8355505b6001600288020188555050505b50505050505056fea2646970667358221220f7cd5e334d1c2c064b25dd3b6d36517c3a05f9a8f28ad515648ed88d550d8b4b64736f6c63430008120033",
  "linkReferences": {},
  "deployedLinkReferences": {}
}